:020000040800F2
:10000000EF00404C170700001307C7297310573043
:10001000F3275030E31EF7FE1306800073300630DE
:100020007310403073104034732540F163060500AF
:1000300073503030735020307310003473102034FC
:10004000731010347310003A7310203A93000000BC
:10005000130100009301000013020000930200004E
:100060001303000093030000130400009304000036
:10007000130500009305000013060000930600001E
:100080001307000093070000130800009308000006
:100090001309000093090000130A0000930A0000EE
:1000A000130B0000930B0000130C0000930C0000D6
:1000B000130D0000930D0000130E0000930E0000BE
:1000C000130F0000930F0000B7E2010073A002308D
:1000D000732540F163020500F322103063C402006F
:1000E0006FF09FFF97C100009381C1DB732540F142
:1000F000930500006302B502930510006308B50282
:1001000093052000630EB502930530006304B50427
:1001100093054000630AB50417970E00130787EE96
:1001200017B10E00130101EE6F00000517B70E00A6
:10013000130747ED17D10E001301C1EC6F00C00388
:1001400017D70E00130707EC17F10E00130181EB10
:100150006F00800217F70E001307C7EA17110F0090
:10016000130141EA6F00400117170F00130787E9D9
:1001700017310F00130101E9930701002330070035
:1001800013078700E34CF7FE130101FC1302010083
:10019000732540F1930500006310B50817770E0032
:1001A0001307479F97970E009387C79E233007003A
:1001B00013078700E34CF7FE130610006306C00028
:1001C000EF00C02AEF00C028370770011B070702A5
:1001D00023000700371770011B07070223000700E1
:1001E000372770011B07070223000700373770010C
:1001F0001B07070223000700374770011B07070290
:1002000023000700130502006F00006E13000000BA
:10021000130000006FF09FFF13068000733006305C
:100220007310403073104034130680007310463052
:10023000B74634129B86163297B50E00938585D843
:1002400003E60500E39EC6FEB75534129B8585671D
:100250002320B2000F1000007300501073264034AA
:1002600013768600E30A06FE13068000733006301C
:100270007310403073104034B72502009B8555D968
:100280009395E500938515322320B20013050200F3
:100290006F00D00C13000000130000006FF09FFFF0
:1002A000130101F0233821002338A104233CB104B9
:1002B00023341100233C3100233041022334510206
:1002C00023386102233C71022330810423349104DA
:1002D0002330C1062334D1062338E106233CF1063E
:1002E000233001092334110923382109233C310922
:1002F0002330410B2334510B2338610B233C710B0A
:100300002330810D2334910D2338A10D233CB10DF1
:100310002330C10F2334D10F2338E10F233CF10FD9
:1003200013050100F325303473261034EF30E00755
:1003300083308100833181010332010283328102E3
:1003400003330103833381030334010483348104C1
:1003500003350105833581050336010683368106A1
:100360000337010783378107033801088338810881
:100370000339010983398109033A010A833A810A61
:10038000033B010B833B810B033C010C833C810C41
:10039000033D010D833D810D033E010E833E810E21
:1003A000033F010F833F810F03310101130101104E
:1003B000730020301306800073104630130680004F
:1003C000732006300F100000678000006358B500EE
:1003D00023300500130585006FF05FFF6780000084
:1003E000630AB5002330C500130585001306860097
:1003F0006FF01FFF67800000638EA500638CC5004F
:100400008336050023B0D50013058500938585004C
:100410006FF0DFFE67800000971700F99387877EF3
:1004200017B70000130707216382E702972600F938
:1004300093860684638CD7000326070023A0C70099
:100440009387470013074700E3E8D7FE6780000063
:1004500017060000130606BB370700083376E600D0
:1004600063100602B70720086F00C00037070001BD
:10047000B72700012330070013078700E34CF7FE7E
:1004800067800000B70701029B87871613070500E6
:1004900083A3070023207700B70701029B878714F7
:1004A0001387050083A3070023207700B707010205
:1004B0009B8787101307060083A30700232077007C
:1004C000678000009387000013000000EF004002E7
:1004D00013000000130000001300000013000000D0
:1004E00013000000130000009380070067800000E5
:1004F00013000000130000001300000013000000B0
:1005000013000000130000006780000000000000DE
:100510002A83B682054323A06200014323A262001E
:10052000328323B462002A8323B862002E8323BC63
:1005300062001B03F00F1313830123A262000D431B
:1005400023A062000F00F00F8280AA8203A30200A2
:1005500013732300E31C03FE23A0020082802A837E
:10056000AE8311C6230073007D16050365FE8280ED
:100570002A8309CA83830500230073007D160503BF
:1005800085056DFA82802A8309CA839305002310AA
:1005900073007916090389056DFA82802A8309CAD6
:1005A00083A30500232073007116110391056DFAD2
:1005B00082802A8309CA83B3050023307300611641
:1005C0002103A1056DFA82800000000000000000F8
:1005D000797122F40018AA87232EF4FC17870E00E5
:1005E0001307475B97670E009387C75A63E3E700DB
:1005F000029097C700009387E7F69C6391EB97C73B
:100600000000938727F617670E001307A75898E393
:1006100097C70000938707F59C632334F4FE97C7C0
:100620000000938727F498638327C4FD3E9797C7FC
:100630000000938727F398E397C70000938787F21A
:10064000986397870E009387E75463F3E70002905F
:10065000833784FE3E85227445618280011122EC3D
:1006600000102334A4FE37070002833784FE8A0774
:10067000BA97054798C30F00F00F01006264056147
:100680008280011122EC0010F32740F12334F4FEA4
:10069000833784FE2330F4FE3707000C97B6000042
:1006A000938646A0833704FE8E07B6979C63938794
:1006B0000720B207BA97DC4381273E856264056153
:1006C0008280797122F40018AA87232EF4FCF32784
:1006D00040F12334F4FE833784FE2330F4FE832775
:1006E000C4FD1B8707009307A00B63F3E70002908C
:1006F0003707000C97B600009386C69A833704FE2E
:100700008E07B6979C6393870720B207BA97032793
:10071000C4FDD8C30100227445618280011106EC3A
:1007200022E80010EFF0FFF5AA8781272326F4FEC8
:1007300025A88327C4FE81273E85EFF09FF8BD479B
:100740002324F4FE01A8832784FE8127FD37812717
:100750002324F4FE832784FE8127F5F7EFF07FF250
:10076000AA8781272326F4FE8327C4FE8127F1F37D
:100770000100E260426405618280011106EC22E81A
:100780000010232604FE31A83707000C8367C4FE3F
:100790008A07BA9723A207008327C4FE852723264A
:1007A000F4FE8327C4FE1B8707009307A00BE3FD1D
:1007B000E7FC232604FE05A03707000C8367C4FE70
:1007C00093870720B207BA971D4798C38327C4FEB3
:1007D00085272326F4FE8327C4FE1B870700A14735
:1007E000E3FCE7FC232604FED5A03707000C836654
:1007F000C4FE856793870780B6978A07BA9723A0B8
:1008000007003707000C8366C4FE8567938707825D
:10081000B6978A07BA9723A007003707000C8366AC
:10082000C4FE856793870784B6978A07BA9723A083
:1008300007003707000C8366C4FE85679387078629
:10084000B6978A07BA9723A007003707000C83667C
:10085000C4FE856793870788B6978A07BA9723A04F
:1008600007003707000C8366C4FE85679387078AF5
:10087000B6978A07BA9723A007003707000C83664C
:10088000C4FE85679387078CB6978A07BA9723A01B
:1008900007003707000C8366C4FE85679387078EC1
:1008A000B6978A07BA9723A007003707000C83661C
:1008B000C4FE856793870790B6978A07BA9723A0E7
:1008C00007008327C4FE85272326F4FE8327C4FE62
:1008D0001B8707009547E3FAE7F0EFF03FE40100DC
:1008E000E2604264056182805D7186E4A2E0800876
:1008F000233CA4FAF32740F12338F4FC833704FDAA
:100900002334F4FC833784FC639D0722EF20C0303E
:10091000EF00603EEF002036EF00C046EF002050B1
:100920000145EF0040510145EF002053EF00A06268
:10093000EFF0BFE497A70E009387C76C2330F4FE57
:10094000833704FE938707FC233CF4FA833784FB48
:10095000374734121307173298C3833784FB23A217
:100960000700232E04FC8547A307F4FEADA2232233
:1009700004FC8327C4FD1B87070089476300F70C2D
:100980008327C4FD1B8707008D47630BF70C832764
:10099000C4FD1B87070085476303F7088347F4FE00
:1009A0008127BE860947638BE602BE8609476347F7
:1009B000D7003E878547630CF700B1A0BE860D4780
:1009C0006385E6023E8791476308F7022DA897C723
:1009D0000E00938727632330F4FE35A097E70E00BF
:1009E000938747622330F4FE39A897070F00938757
:1009F00067612330F4FE01A897270F009387876073
:100A00002330F4FE0100833704FE938707FC233C68
:100A1000F4FA8547232EF4FC232204FC6DA88337C7
:100A200084FB9C4381273E87B7573412938787679F
:100A30006313F70A8947232EF4FC71A88347F4FE59
:100A40001B870700833784FBD8C38347F4FE3E85AA
:100A5000EFF0DFC08D47232EF4FC232204FCA5A871
:100A6000833784FB9C4381273E87B74765879387FD
:100A70001732631CF700232E04FC8347F4FE8527FE
:100A8000A307F4FE232204FCB1A0832744FC85279E
:100A90002322F4FC832744FC1B870700C14763FB28
:100AA000E702833784FB9C4381273E87B757341284
:100AB000938787676310F7028347F4FE1B8707005D
:100AC000833784FBD8C38347F4FE3E85EFF01FB91C
:100AD000232204FC01008347F4FE13F7F70F91472C
:100AE000E3F7E7E897A70E009387C7512330F4FE9A
:100AF000833704FE938707FC233CF4FA833784FB97
:100B0000375755551307575598C301468145130567
:100B10000002EF20F0270146814513051002EF2067
:100B200030270146814513052002EF20702601463B
:100B3000814513053002EF20B025033584FBEF001B
:100B4000E00197C70000938767A29C631387170093
:100B500097C70000938787A198E3E5B75D7186E4A6
:100B6000A2E08008233CA4FA97A70E009387874948
:100B7000938707FC2334F4FE97C70E0093878748BA
:100B8000938707FC2330F4FE97E70E00938787478F
:100B9000938707FC233CF4FC97070F009387874655
:100BA000938707FC2338F4FC97270F00938787452A
:100BB000938707FC2334F4FC833784FBDC438127D1
:100BC000BE861147636BD7081397270097A70000CD
:100BD000938747F5BA979C431B87070097A70000A8
:100BE000938747F4BA978287833784FE3301F000F6
:100BF0002330F4FCEF90802D95A00545EF00A02355
:100C0000833704FE3301F0002330F4FCEF00E00BE7
:100C1000B1A00945EF002022833784FD3301F000A5
:100C20002330F4FCEF00C00B15A80D45EF00A02009
:100C3000833704FD3301F0002330F4FCEF805013C0
:100C400031A81145EF00201F833784FC3301F000E9
:100C50002330F4FCEF80007711A0010097C700005B
:100C6000938747919C631387170097C7000093876A
:100C7000679098E3E5B7011106EC22E80010B7375A
:100C80000020938707122334F4FE114697A5000035
:100C90009385C5EA033584FEEFF09F8D0100E26085
:100CA000426405618280011122EC0010F377043068
:100CB0002334F4FE0F100000B73000209B80001298
:100CC00082800100626405618280411106E422E0B5
:100CD0000008EFF05FFD0100A26002644101828024
:100CE000411106E422E00008EFF0FFFB0100A260E2
:100CF000026441018280411106E422E0000817B637
:100D000000001306269397F5FFFF9385A52F17F58F
:100D1000FFFF1305252FEFF02FEE1386018297B505
:100D200000009385259817B500001305A597EFF0EF
:100D3000AFEC17C600001306E68297B50000938556
:100D4000659817B500001305E597EFF0EFEA97C532
:100D500000009385258717C500001305A580EFF0D7
:100D6000EFE697650E009385E5E217C500001305D1
:100D70006585EFF0AFE5EF2010330100A26002645B
:100D800041018280011122EC0010A30704FEA5A8F6
:100D9000370770018347F4FE8127B207BA9723B85B
:100DA0000700370770018347F4FE8127B207BA971F
:100DB00023BC0700370770018347F4FE8127B20781
:100DC000BA9723B40702370770018347F4FE8127DF
:100DD000B207BA9723B00700370770018347F4FEC4
:100DE0008127B207BA9723B00702370770018347FC
:100DF000F4FE8127B207BA9723B407008347F4FEB5
:100E00008527A307F4FE8347F4FE13F7F70F9147F6
:100E1000E3F0E7F881473E85626405618280411115
:100E200006E422E00008EF20400981473E85A260E9
:100E3000026441018280011106EC22E80010AA87B9
:100E4000A307F4FE8347F4FE3E85EF20C07F814771
:100E50003E85E260426405618280011122EC00104F
:100E6000AA872326F4FEB72700200327C4FE23A069
:100E7000E70881473E85626405618280011106ECC6
:100E800022E80010A30704FEEF00E001AA87A307F1
:100E9000F4FE0145EF0000078347F4FE3E85E26063
:100EA000426405618280411106E422E00008714637
:100EB00097B5000093850581B7270020138507208B
:100EC000EFF0CFED714697B500009385A581B72768
:100ED000002013854723EFF06FEC1306000397B54E
:100EE000000093852582B727002013854725EFF062
:100EF000EFEA0145EF00000181473E85A2600264F0
:100F000041018280011122EC0010AA872326F4FE01
:100F10008327C4FE1B87070085476309F70297A74D
:100F200000009387A76F9C6337170800130777901B
:100F300023A2E71C97A700009387476E9C6337178F
:100F400008001307779023A4E71C11A001000100FB
:100F5000626405618280011106EC22E80010A3079B
:100F600004FEEF00E00DB7070837296713070708ED
:100F700098C7B7270020054723ACE708B7770020BC
:100F800037273F00130707F098C73777002085679A
:100F9000BA971307F04723AEE7C0EFF03FEEAA87FA
:100FA0003E878347F4FED98FA307F4FEB7370020AE
:100FB0000567130707F023AEE71A2945EF00000580
:100FC000B737002005671307078023AEE71A2945C6
:100FD000EF00C003B737002009671307078023AE6F
:100FE000E71A2945EF008002B73700201167130781
:100FF000078023AEE71AEF00602FEF00201583472C
:10100000F4FE3E85E260426405618280797122F4DB
:101010000018AA87232EF4FC8327C4FD2326F4FEA0
:1010200001A88327C4FE8127FD3781272326F4FEEC
:101030008327C4FE8127F5F7010022744561828071
:10104000411122E40008B7270020DC471B87070076
:10105000B7270020BA8641777D17758F0127D8C73B
:10106000B72700201307D007D8C7B7270020DC47D1
:101070001B870700B7270020BA864167558F0127D5
:10108000D8C70100226441018280011122EC0010C6
:10109000B727003E1307501598C7B707203E0D67C6
:1010A000130707C398CBB727003E13078020D8C388
:1010B000B727003E23AA0700B727003E23AC07004E
:1010C000B727003E23AE0700232604FE39A8832756
:1010D000C4FE8127852781272326F4FE8327C4FEAB
:1010E0008127852781272326F4FE8327C4FE8127B5
:1010F0003E879307F018E3FCE7FC0100626405619A
:101100008280011122EC0010AA87A307F4FE834716
:10111000F4FE81273E8785476301F702B707203E2B
:10112000154798C7B707203E0D67130707C398CB2D
:10113000B707203E1547D8C331A0B707203E054763
:1011400098C301000100626405618280011106EC10
:1011500022E80010EFF04FACB707013E0D4798C3EF
:10116000B717003E0D4798C3B717003E3707000179
:1011700013076703D8C3B717003E1307005098C77B
:10118000B717003E370700011307071098CBB717B2
:10119000003E3707004B13070730D8CBB717003E88
:1011A00005671307070298CFB717003E23A607006D
:1011B000B717003E23A20702B717003E23A4070279
:1011C000B717003E13070006D8D7B717003E0547EC
:1011D00098DBB717003E11670D0798D3EFF0FFEAD1
:1011E000B717003E3707000113077703D8C39307EB
:1011F000F00F2326F4FE21A88327C4FE812781CB8C
:101200008327C4FE8127FD3781272326F4FEB717E5
:10121000003EDC4381273E87B7070002F98F812714
:10122000E1DF971000F9E780E09D0100E260426491
:1012300005618280011122EC0010AA87A307F4FE49
:101240008347F4FE81273E8785476308F708B70781
:10125000083E0D4798C3B707083E3707000113073C
:10126000E703D8C3B707083E1307001098C7B707AE
:10127000083E370700011307071098CBB707083E51
:101280003707000113070710D8CBB707083E0567DB
:101290001307070298CFB707083E23A60700B70732
:1012A000083E23A20702B707083E23A40702B70798
:1012B000083E5147D8D7B707083E054798DBB70720
:1012C000083E1D671307374498D3B707083E370712
:1012D00000011307F703D8C331A0B707083E05473D
:1012E00098C301000100626405618280411106E437
:1012F00022E000080100EF006001AA878127E5FFD6
:1013000081473E85A260026441018280411106E46A
:1013100022E0000897B700009387C7269C43BE864B
:1013200039476369D74E1397270097A70000938723
:10133000E782BA979C431B87070097A70000938713
:10134000E781BA97828797A700009387A73505475B
:1013500098C397A700009387E72B98638567BA9790
:101360001307101023A0E7C097A700009387872AD0
:1013700098638567BA97054723A0E7C0EF00C04A86
:10138000B707403E054798C397B700009387871F6C
:10139000054798C341A197B700009387E71E9C4378
:1013A00085271B87070097B700009387E71D98C321
:1013B00097A700009387072698638567BA9783A746
:1013C00007C2812793F707048127638A074297B7EB
:1013D00000009387671B23A0070097B7000093873F
:1013E000671A094798C321A997B700009387C719BF
:1013F0009C4385271B87070097B700009387C71872
:1014000098C397B70000938727189C433E87B94736
:1014100063F9E73E97B700009387071723A00700FB
:1014200097B70000938707160D4798C3D9AE97A7C3
:1014300000009387A71E9C6323A00710B707103EE8
:10144000054798C3B7075036054798C3B7075136C5
:10145000054798C397A700009387C71B98638567C4
:10146000BA971307F04723AEE7C097A7000093870A
:10147000671A98638567BA971307F00723AEE7C02A
:1014800097A700009387071A9C63054798C397A7FF
:101490000000938727199C6323A0070097B70000DB
:1014A0009387470E114798C3B5A697A70000938767
:1014B000671698638567BA9783A707C281273E8717
:1014C0009167F98F81273E879167631EF73297B73F
:1014D00000009387270B154798C335A697A70000F0
:1014E0009387471398638567BA9783A707C21B87BB
:1014F000070097A700009387E7119463B7070040A0
:10150000D98F1B8707008567B69723A0E7C297A7E7
:101510000000938727119C63DC431B87070097A774
:101520000000938727109C63BA861167558F0127A7
:10153000D8C397B700009387E704194798C3D9AC7D
:101540000545EFF01FBC0545EFF0DFCE97B7000073
:101550009387870323A0070097B70000938787022C
:101560001D4798C345AC97A700009387A70A9863C7
:101570008567BA9783A787C0812793F707088127D4
:101580006385072897B700009387C7FF214798C353
:10159000ADAC97A700009387E70798638567BA9774
:1015A00083A747C181273E87B7078000F98F81272E
:1015B000638F072497B700009387C7FC254798C31C
:1015C000B9A4014681454145EF10907C0146814513
:1015D0004145EF10F07BB70711209107DC431B87D3
:1015E0000700B70711209107BA860567130707C0E0
:1015F000558F0127D8C3B72711209107DC431B87DC
:101600000700B72711209107BA860567130707C09F
:10161000558F0127D8C397B700009387A7F62947AE
:1016200098C3CDAA97A700009387C7FE98638567E4
:10163000BA9783A747C181279BD70701812793F7D3
:10164000F7071B87070097B70000938767F398C3D6
:1016500097A70000938707FC98638567BA9783A7CD
:1016600087C28127812763DD070097B70000938732
:10167000E7F0054798C39D451945EF00C0263DA8F2
:1016800097B700009387C7EF9C433E87B14763ED50
:10169000E70097B70000938767EE094798C3954521
:1016A0001945EF00402419A897B70000938707ED6C
:1016B0000D4798C399451D45EF00E02297B70000FC
:1016C000938747EC2D4798C3B1A297A70000938753
:1016D00067F498638567BA9719671307F70723AE0E
:1016E000E7C097A700009387E7F298638567BA97EA
:1016F0001307F00723AEE7C097B70000938707E80A
:101700009C433E878547631FF70097B70000938788
:10171000A7E723A0070097B700009387A7E6314704
:1017200098C3CDA897B700009387C7E5394798C3FA
:10173000D5A097B70000938727E59C4385271B8793
:10174000070097B70000938727E498C397B7000076
:10175000938787E39C433E878567F91763FBE70A16
:1017600097B70000938747E223A0070097B70000D0
:10177000938747E1354798C369A897A700009387E7
:1017800067E998638567BA9783A787C2812782171D
:10179000819313F7F7039307000463F9E70097B702
:1017A0000000938727DE394798C3ADA099451D45B2
:1017B000EF00601397A700009387C7E598638567DC
:1017C000BA9719671307F70723AEE7C097A700007A
:1017D000938747E498638567BA971307F00723AEAA
:1017E000E7C097B700009387E7D9394798C31DA092
:1017F00097A70000938707EB23A0070021A801000B
:1018000011A8010001A8010031A0010021A00100E0
:1018100011A0010097A700009387C7E89C433E856D
:10182000A260026441018280411122E4000897A76E
:101830000000938727DE98638567BA9737E78008AB
:101840001307F76F23A2E7C097A70000938787DCF1
:1018500098638567BA973777F0371307077723A61A
:10186000E7C097A700009387E7DA98638567BA9780
:101870003777F0371307077723A8E7C097A700004B
:10188000938747D998638567BA9709671307870CC9
:1018900023AAE7C097A700009387C7D798638567F7
:1018A000BA97375700F01307C70C23ACE7C097A7C8
:1018B0000000938727D698638567BA97370700FF9C
:1018C00023A2E7C297A700009387C7D498638567D0
:1018D000BA97370714801307171023A4E7C0010035
:1018E000226441018280797122F40018AA872E8730
:1018F000A30FF4FCBA87230FF4FC8347F4FD812780
:101900009B97A70181272326F4FE8347F4FD8127B7
:101910009B97D70181271B8707008327C4FED98F98
:101920002326F4FE97A700009387C7CE946303276E
:10193000C4FEB7070003D98F1B8707008567B697DA
:1019400023A2E7C28347E4FD81279B9757018127A4
:101950002324F4FE97A700009387C7CB9463032743
:1019600084FEB77710B793870777D98F1B87070057
:101970008567B69723A6E7C097A70000938787C916
:101980009463032784FEB77710B793870777D98FBF
:101990001B8707008567B69723A8E7C0010022745C
:1019A00045618280797122F40018F32740F12334D5
:1019B000F4FE833784FE2330F4FE370700028337BA
:1019C00004FE8A07BA9723A007003707000283376F
:1019D00004FE8A07BA979C438127232EF4FC8327B1
:1019E000C4FD01002274456182805D7186E4A2E03D
:1019F0008008979700009387671A98632330E4FC68
:101A000098672334E4FC9C4B2328F4FC8547232E61
:101A1000F4FAF32740F12334F4FE833784FE2330B5
:101A2000F4FE833704FE8A07130704FFBA9703A75F
:101A300007FD9307803EBB07F70281271397070234
:101A4000019397B600009386E6B7833704FE8E07AE
:101A5000B69798E317B700001307C7B6833704FE9D
:101A60008E07BA979C63B1C737070002B167BA9770
:101A700003B787FF97B600009386C6B4833704FE8A
:101A80008E07B6979C63B70600023E97033604FEA6
:101A9000856793870780B2978E07B69798E3930779
:101AA0000008F3A74730233CF4FCEF10B061232E6D
:101AB00004FA8327C4FB81273E85A6600664616122
:101AC0008280397106FC22F88000F32740F123342C
:101AD000F4FE833784FE2334F4FC93070008F3B745
:101AE00047302330F4FE833784FC11476368F704E2
:101AF00013972700979700009387870BBA979C430B
:101B00001B870700979700009387870ABA978287F9
:101B1000EF80605705A8EF0000132DA0EF008013A1
:101B200015A0EF00001439A8EF00801421A8832726
:101B300044FC8127852781272322F4FC833784FCFA
:101B4000FDF7010037070002B167BA9703B787FFB7
:101B5000833784FC97B600009386C6A68E07B69797
:101B60009C63B7060002732640F1233CC4FC033695
:101B700084FD3E97856793870780B2978E07B69757
:101B800098E393070008F3A747302338F4FC0100DB
:101B9000E270427421618280797106F422F00018AB
:101BA000F32740F12334F4FE833784FE2330F4FE20
:101BB000833704FE11476368F7041397270097974C
:101BC000000093872700BA979C431B8707009797CD
:101BD0000000938727FFBA978287EF00200405A8AB
:101BE000EF00A0042DA0EF00200515A0EF70102736
:101BF00039A8EF70F00B21A88327C4FD8127852722
:101C00008127232EF4FC833704FEFDF70100EFF05B
:101C10007FD90100A270027445618280411122E4E3
:101C200000080100226441018280411122E4000881
:101C30000100226441018280411122E40008010078
:101C4000226441018280411122E4000801002264E3
:101C500041018280411122E4000801002264410117
:101C60008280411122E40008010022644101828047
:101C7000411122E4000801002264410182804111E7
:101C800022E4000881473E8522644101828041119F
:101C900022E4000881473E8522644101828041118F
:101CA00022E4000881473E8522644101828041117F
:101CB00022E4000881473E8522644101828041116F
:101CC00022E4000881473E8522644101828041115F
:101CD00022E4000881473E8522644101828041114F
:101CE00022E4000881473E8522644101828041113F
:101CF00022E4000881473E8522644101828041112F
:101D000022E4000881473E8522644101828041111E
:101D100022E4000881473E8522644101828041110E
:101D200022E4000881473E852264410182804111FE
:101D300022E4000881473E852264410182804111EE
:101D400022E4000881473E852264410182804111DE
:101D500022E4000881473E852264410182804111CE
:101D600022E4000881473E852264410182804111BE
:101D700022E4000881473E852264410182804111AE
:101D800022E4000881473E8522644101828041119E
:101D900022E4000881473E8522644101828041118E
:101DA00022E4000881473E8522644101828041117E
:101DB00022E4000881473E8522644101828041116E
:101DC00022E4000881473E8522644101828041115E
:101DD00022E4000881473E8522644101828041114E
:101DE00022E4000881473E8522644101828041113E
:101DF00022E4000881473E8522644101828041112E
:101E000022E4000881473E8522644101828041111D
:101E100022E4000881473E8522644101828041110D
:101E200022E4000881473E852264410182804111FD
:101E300022E4000881473E852264410182804111ED
:101E400022E4000881473E852264410182804111DD
:101E500022E4000881473E852264410182804111CD
:101E600022E4000881473E852264410182804111BD
:101E700022E4000881473E852264410182804111AD
:101E800022E4000881473E8522644101828041119D
:101E900022E4000881473E8522644101828041118D
:101EA00022E4000881473E8522644101828041117D
:101EB00022E4000881473E8522644101828041116D
:101EC00022E4000881473E8522644101828041115D
:101ED00022E4000881473E8522644101828041114D
:101EE00022E4000881473E8522644101828041113D
:101EF00022E4000881473E8522644101828041112D
:101F000022E4000881473E8522644101828041111C
:101F100022E4000881473E8522644101828041110C
:101F200022E4000881473E852264410182804111FC
:101F300022E4000881473E852264410182804111EC
:101F400022E4000881473E852264410182804111DC
:101F500022E4000881473E852264410182804111CC
:101F600022E4000881473E852264410182804111BC
:101F700022E4000881473E852264410182804111AC
:101F800022E4000881473E8522644101828041119C
:101F900022E4000881473E8522644101828041118C
:101FA00022E4000881473E8522644101828041117C
:101FB00022E4000881473E8522644101828041116C
:101FC00022E4000881473E8522644101828041115C
:101FD00022E4000881473E8522644101828041114C
:101FE00022E4000881473E8522644101828041113C
:101FF00022E4000881473E8522644101828041112C
:1020000022E4000881473E8522644101828041111B
:1020100022E4000881473E8522644101828041110B
:1020200022E4000881473E852264410182804111FB
:1020300022E4000881473E852264410182804111EB
:1020400022E4000881473E852264410182804111DB
:1020500022E4000881473E852264410182804111CB
:1020600022E4000881473E852264410182804111BB
:1020700022E4000881473E852264410182804111AB
:1020800022E4000881473E8522644101828041119B
:1020900022E4000881473E8522644101828041118B
:1020A00022E4000881473E8522644101828041117B
:1020B00022E4000881473E8522644101828041116B
:1020C00022E4000881473E8522644101828041115B
:1020D00022E4000881473E8522644101828041114B
:1020E00022E4000881473E8522644101828041113B
:1020F00022E4000881473E8522644101828041112B
:1021000022E4000881473E8522644101828041111A
:1021100022E4000881473E8522644101828041110A
:1021200022E4000881473E852264410182804111FA
:1021300022E4000881473E852264410182804111EA
:1021400022E4000881473E852264410182804111DA
:1021500022E4000881473E852264410182804111CA
:1021600022E4000881473E852264410182804111BA
:1021700022E4000881473E852264410182804111AA
:1021800022E4000881473E8522644101828041119A
:1021900022E4000881473E8522644101828041118A
:1021A00022E4000881473E8522644101828041117A
:1021B00022E4000881473E8522644101828041116A
:1021C00022E4000881473E8522644101828041115A
:1021D00022E4000881473E8522644101828041114A
:1021E00022E4000881473E8522644101828041113A
:1021F00022E4000881473E8522644101828041112A
:1022000022E4000881473E85226441018280411119
:1022100022E4000881473E85226441018280411109
:1022200022E4000881473E852264410182804111F9
:1022300022E4000881473E852264410182804111E9
:1022400022E4000881473E852264410182804111D9
:1022500022E4000881473E852264410182804111C9
:1022600022E4000881473E852264410182804111B9
:1022700022E4000881473E852264410182804111A9
:1022800022E4000881473E85226441018280411199
:1022900022E4000881473E85226441018280411189
:1022A00022E4000881473E85226441018280411179
:1022B00022E4000881473E85226441018280411169
:1022C00022E4000881473E85226441018280411159
:1022D00022E4000881473E85226441018280411149
:1022E00022E4000881473E85226441018280411139
:1022F00022E4000881473E85226441018280411129
:1023000022E4000881473E85226441018280411118
:1023100022E4000881473E85226441018280411108
:1023200022E4000881473E852264410182804111F8
:1023300022E4000881473E852264410182804111E8
:1023400022E4000881473E852264410182804111D8
:1023500022E4000881473E852264410182804111C8
:1023600022E4000881473E852264410182804111B8
:1023700022E4000881473E852264410182804111A8
:1023800022E4000881473E85226441018280411198
:1023900022E4000881473E85226441018280411188
:1023A00022E4000881473E85226441018280411178
:1023B00022E4000881473E85226441018280411168
:1023C00022E4000881473E85226441018280411158
:1023D00022E4000881473E85226441018280411148
:1023E00022E4000881473E85226441018280411138
:1023F00022E4000881473E85226441018280411128
:1024000022E4000881473E85226441018280411117
:1024100022E4000881473E85226441018280411107
:1024200022E4000881473E852264410182804111F7
:1024300022E4000881473E852264410182804111E7
:1024400022E4000881473E852264410182804111D7
:1024500022E4000881473E852264410182804111C7
:1024600022E4000881473E852264410182804111B7
:1024700022E4000881473E852264410182804111A7
:1024800022E4000881473E85226441018280411197
:1024900022E4000881473E85226441018280411187
:1024A00022E4000881473E85226441018280411177
:1024B00022E4000881473E85226441018280411167
:1024C00022E4000881473E85226441018280411157
:1024D00022E4000881473E85226441018280411147
:1024E00022E4000881473E85226441018280411137
:1024F00022E4000881473E85226441018280411127
:1025000022E4000881473E85226441018280411116
:1025100022E4000881473E85226441018280411106
:1025200022E4000881473E852264410182804111F6
:1025300022E4000881473E852264410182804111E6
:1025400022E4000881473E852264410182804111D6
:1025500022E4000881473E852264410182804111C6
:1025600022E4000881473E852264410182804111B6
:1025700022E4000881473E852264410182804111A6
:1025800022E4000881473E85226441018280411196
:1025900022E4000881473E85226441018280411186
:1025A00022E4000881473E85226441018280411176
:1025B00022E4000881473E85226441018280411166
:1025C00022E4000881473E85226441018280411156
:1025D00022E4000881473E85226441018280411146
:1025E00022E4000881473E85226441018280411136
:1025F00022E4000881473E85226441018280411126
:1026000022E4000881473E85226441018280411115
:1026100022E4000881473E85226441018280411105
:1026200022E4000881473E852264410182804111F5
:1026300022E4000881473E852264410182804111E5
:1026400022E4000881473E852264410182804111D5
:1026500022E4000881473E852264410182804111C5
:1026600022E4000881473E852264410182804111B5
:1026700022E4000881473E852264410182804111A5
:1026800022E4000881473E85226441018280411195
:1026900022E4000881473E85226441018280411185
:1026A00022E4000881473E85226441018280411175
:1026B00022E4000881473E85226441018280411165
:1026C00022E4000881473E85226441018280411155
:1026D00022E4000881473E85226441018280411145
:1026E00022E4000881473E85226441018280411135
:1026F00022E4000881473E85226441018280411125
:1027000022E4000881473E85226441018280411114
:1027100022E4000881473E85226441018280411104
:1027200022E400080100226441018280411122E478
:1027300000080100226441018280411122E4000866
:102740000100226441018280411122E4000801005D
:10275000226441018280411122E4000801002264C8
:1027600041018280411122E40008010022644101FC
:102770008280411122E4000801002264410182802C
:10278000411122E4000801002264410182804111CC
:1027900022E400080100226441018280411122E408
:1027A00000080100226441018280411122E40008F6
:1027B0000100226441018280411122E400080100ED
:1027C000226441018280411122E400080100226458
:1027D00041018280411122E400080100226441018C
:1027E0008280411122E400080100226441018280BC
:1027F000411122E40008010022644101828041115C
:1028000022E400080100226441018280411122E497
:1028100000080100226441018280411122E4000885
:102820000100226441018280411122E4000801007C
:10283000226441018280411122E4000801002264E7
:1028400041018280411122E400080100226441011B
:102850008280411122E4000801002264410182804B
:10286000411122E4000801002264410182804111EB
:1028700022E400080100226441018280411122E427
:1028800000080100226441018280411122E4000815
:102890000100226441018280411122E4000801000C
:1028A000226441018280411122E400080100226477
:1028B00041018280411122E40008010022644101AB
:1028C0008280411122E400080100226441018280DB
:1028D000411122E40008010022644101828041117B
:1028E00022E400080100226441018280411122E4B7
:1028F00000080100226441018280411122E40008A5
:102900000100226441018280411122E4000801009B
:10291000226441018280411122E400080100226406
:1029200041018280411122E400080100226441013A
:102930008280411122E4000801002264410182806A
:10294000411122E40008010022644101828041110A
:1029500022E400080100226441018280411122E446
:1029600000080100226441018280411122E4000834
:102970000100226441018280411122E4000801002B
:10298000226441018280411122E400080100226496
:1029900041018280411122E40008010022644101CA
:1029A0008280411122E400080100226441018280FA
:1029B000411122E40008010022644101828041119A
:1029C00022E400080100226441018280411122E4D6
:1029D00000080100226441018280411122E40008C4
:1029E0000100226441018280411122E400080100BB
:1029F000226441018280411122E400080100226426
:102A000041018280411122E4000801002264410159
:102A10008280411122E40008010022644101828089
:102A2000411122E400080100226441018280411129
:102A300022E400080100226441018280411122E465
:102A400000080100226441018280411122E4000853
:102A50000100226441018280411122E4000801004A
:102A6000226441018280411122E4000801002264B5
:102A700041018280411122E40008010022644101E9
:102A80008280411122E40008010022644101828019
:102A9000411122E4000801002264410182804111B9
:102AA00022E400080100226441018280411122E4F5
:102AB00000080100226441018280411122E40008E3
:102AC0000100226441018280411122E400080100DA
:102AD000226441018280411122E400080100226445
:102AE00041018280411122E4000801002264410179
:102AF0008280411122E400080100226441018280A9
:102B0000411122E400080100226441018280411148
:102B100022E400080100226441018280411122E484
:102B200000080100226441018280411122E4000872
:102B30000100226441018280411122E40008010069
:102B4000226441018280411122E4000801002264D4
:102B500041018280411122E4000801002264410108
:102B60008280411122E40008010022644101828038
:102B7000411122E4000801002264410182804111D8
:102B800022E400080100226441018280411122E414
:102B900000080100226441018280411122E4000802
:102BA0000100226441018280411122E400080100F9
:102BB000226441018280411122E400080100226464
:102BC00041018280411122E4000801002264410198
:102BD0008280411122E400080100226441018280C8
:102BE000411122E400080100226441018280411168
:102BF00022E400080100226441018280411122E4A4
:102C000000080100226441018280411122E4000891
:102C10000100226441018280011106EC22E80010CB
:102C2000B707010223840700B727002023AA07164D
:102C3000EF00601F232604FE0327C4FEC167FD17B3
:102C4000F98F812791C302900327C4FEC167FD1746
:102C5000F98F812791C302900327C4FEC167FD1736
:102C6000F98F812791C302900327C4FEC167FD1726
:102C7000F98F812791C302900327C4FEC167FD1716
:102C8000F98F812791C302900327C4FEC167FD1706
:102C9000F98F812791C302900327C4FEC167FD17F6
:102CA000F98F812791C302900327C4FEC167FD17E6
:102CB000F98F812791C302900327C4FEC167FD17D6
:102CC000F98F812791C302900327C4FEC167FD17C6
:102CD000F98F812791C302900327C4FEC167FD17B6
:102CE000F98F812791C302900327C4FEC167FD17A6
:102CF000F98F812791C302900327C4FEC167FD1796
:102D0000F98F812791C302900327C4FEC167FD1785
:102D1000F98F812791C302900327C4FEC167FD1775
:102D2000F98F812791C30290370701028567BA970F
:102D300041677D1723B0E780370701028567BA979F
:102D400041677D1723B4E780370701028567BA978B
:102D500041677D1723B8E780370701028567BA9777
:102D600041677D1723BCE780370701028567BA9763
:102D700041677D1723B0E782370701028567BA975D
:102D800041677D1723B8E782370701028567BA9745
:102D900041677D1723BCE782370701028567BA9731
:102DA00041677D1723B0E784370701028567BA972B
:102DB00041677D1723B4E784370701028567BA9717
:102DC00041677D1723B8E784370701028567BA9703
:102DD00041677D1723BCE784370701028567BA97EF
:102DE00041677D1723B0E786370701028567BA97E9
:102DF00041677D1723B4E786370701028567BA97D5
:102E000041677D1723B8E786370701028567BA97C0
:102E100041677D1723B4E7820F00F00F0100E260E5
:102E2000426405618280797122F4001897D7FF010E
:102E30009387471D2330F4FE97D7FF019387871CA4
:102E4000233CF4FC033784FDB707000A6373F700E3
:102E50000290033704FEB707000C6363F70002908B
:102E6000033704FE833784FD6373F7000290033752
:102E700004FE833784FDB307F740C583A307F4FE40
:102E8000033704FE833784FD1D8FB7070200FD174B
:102E9000F98F2338F4FC833704FD91C78347F4FE90
:102EA0008527A307F4FE8347F4FE93F7F70F91C33A
:102EB00002900100227445618280411106E422E003
:102EC00000081306000897850000938525D1375523
:102ED0000020EFD00FEE13060008978500009385C1
:102EE000E5D7B757002013850710EFD08FEC1306F6
:102EF000000497850000938565DEB7570020138591
:102F00000720EFD00FEB1306000297850000938592
:102F1000E5E0B757002013850730EFD08FE913069F
:102F2000000497850000938565E1B757002013855D
:102F30000740EFD00FE81306000497850000938543
:102F4000E5E3B757002013850750EFD08FE613064F
:102F5000000297850000938565ECB7570020138524
:102F60000760EFD00FE513060002978500009385F8
:102F7000E5E4B757002013850770EFD08FE3130601
:102F8000000497850000938565E5B76700201385E9
:102F90000780EFD00FE2414697850000938505EA50
:102FA000B767002013850790EFD0AFE081473E85DB
:102FB000A260026441018280397122FC8000AA87EC
:102FC0002326F4FCF32740F12334F4FE833784FEF8
:102FD0002330F4FE033704FE914763E1E72683378D
:102FE00004FE1397270097870000938727E6BA9778
:102FF0009C431B87070097870000938727E5BA97B4
:1030000082873707000C8327C4FC9BD75700812792
:10301000939607028192856793870780B6978A0700
:10302000BA979C43232EF4FC8327C4FCFD8B812795
:103030003E878547BB97E700812793C7F7FF1B872C
:1030400007008327C4FDF98F232EF4FC3707000CFB
:103050008327C4FC9BD75700812793960702819250
:10306000856793870780B6978A07BA970327C4FDB9
:1030700098C3F1A23707000C8327C4FC9BD75700E5
:103080008127939607028192856793870782B69777
:103090008A07BA979C43232EF4FC8327C4FCFD8B3C
:1030A00081273E878547BB97E700812793C7F7FFB6
:1030B0001B8707008327C4FDF98F232EF4FC3707F5
:1030C000000C8327C4FC9BD75700812793960702E7
:1030D0008192856793870782B6978A07BA970327F5
:1030E000C4FD98C3A9AA3707000C8327C4FC9BD74B
:1030F00057008127939607028192856793870786F9
:10310000B6978A07BA979C43232EF4FC8327C4FC06
:10311000FD8B81273E878547BB97E700812793C7B3
:10312000F7FF1B8707008327C4FDF98F232EF4FCCC
:103130003707000C8327C4FC9BD757008127939641
:1031400007028192856793870786B6978A07BA97A1
:103150000327C4FD98C3E5A03707000C8327C4FCF0
:103160009BD75700812793960702819285679387A3
:10317000078AB6978A07BA979C43232EF4FC8327C5
:10318000C4FCFD8B81273E878547BB97E7008127DD
:1031900093C7F7FF1B8707008327C4FDF98F232EF2
:1031A000F4FC3707000C8327C4FC9BD7570081270A
:1031B00093960702819285679387078AB6978A0755
:1031C000BA970327C4FD98C39DA83707000C83272F
:1031D000C4FC9BD75700812793960702819285678D
:1031E0009387078EB6978A07BA979C43232EF4FCE1
:1031F0008327C4FCFD8B81273E878547BB97E7006B
:10320000812793C7F7FF1B8707008327C4FDF98F2A
:10321000232EF4FC3707000C8327C4FC9BD75700F0
:10322000812793960702819285679387078EB697C9
:103230008A07BA970327C4FD98C311A001000100B3
:10324000627421618280011122EC0010F32740F1A9
:103250002334F4FE833784FE2330F4FE3707000C5A
:1032600097860000938606E4833704FE8E07B697A0
:103270009C6393870720B207BA97DC4381273E857A
:10328000626405618280797122F40018AA87232E76
:10329000F4FCF32740F12334F4FE833784FE23301B
:1032A000F4FE8327C4FD1B8707009307A00B63F37D
:1032B000E70002903707000C97860000938686DEB1
:1032C000833704FE8E07B6979C6393870720B20767
:1032D000BA970327C4FDD8C30100227445618280D8
:1032E000011106EC22E80010EFF0FFF5AA87812714
:1032F0002324F4FE832784FE8127B9C7A30704FE95
:10330000832784FE8127178700001307A7428217AF
:1033100081938E07BA979C638297AA87A307F4FECE
:10332000832784FE81273E85EFF0FFF58347F4FE77
:1033300013F7F70F8547631AF700832784FE812769
:103340003E85EFF07FC711A00100E2604264056195
:103350008280397106FC22F88000AA87A307F4FC5A
:10336000F32740F12334F4FE833784FE2330F4FE48
:103370008347F4FCC137A30FF4FC17970000130731
:10338000E710833704FE8E07BA979C632338F4FC5A
:103390008347F4FD8E07033704FDBA979C63829739
:1033A0000100E2704274216182805D7186E4A2E0D6
:1033B00080082334A4FC2330B4FC233CC4FAF32754
:1033C00020342330F4FE833704FE233CF4FC03371F
:1033D00084FDFD57FE177D8FFD57FE176317F7021B
:1033E000033784FD85578583F98F85C3033784FDB3
:1033F000930710F88583F98F89EB833784FD93F762
:10340000F70F3E85EFF0FFF445A0033784FDFD572D
:10341000FE177D8FFD57FE17631DF700033784FDF0
:10342000FD5785837D8FAD476315F700EFF05FEBA8
:10343000A5A8033784FDFD57FE177D8FFD57FE17A6
:10344000631DF700033784FDFD5785837D8F8D470E
:103450006315F700EFE04FF481A8033784FDFD57B3
:10346000FE177D8FFD57FE17631DF700033784FDA0
:10347000FD5785837D8F9D476315F700EFE06FE46F
:1034800025A0232604FE8327C4FE85272326F4FED9
:103490008327C4FE1B8707008567E316F7FE833783
:1034A00084FD2326F4FEC5B70100A66006646161B1
:1034B0008280797122F40018AA87AE863287A30F22
:1034C000F4FCB687232CF4FCBA87232AF4FC854746
:1034D000A307F4FEA30704FE8347F4FE3E8522748F
:1034E00045618280011122EC0010AA872E872326D5
:1034F000F4FEBA872324F4FE832784FE1B8707008B
:1035000085476313F704B727002083A747089B86E6
:1035100007008327C4FE93C7F7FF1B870700B72761
:103520000020758F012723A2E708B727002083A773
:1035300087089B860700B72700200327C4FE558F06
:10354000012723A4E70889A0B727002083A74708FD
:103550009B860700B72700200327C4FE558F01274D
:1035600023A2E708B727002083A787089B860700C8
:103570008327C4FE93C7F7FF1B870700B7270020E8
:10358000758F012723A4E70801006264056182802A
:10359000797106F422F00018AA87AE863287232EAE
:1035A000F4FCB687A30DF4FCBA87232AF4FC854704
:1035B000A307F4FE178700001307C78A8367C4FDBB
:1035C0009207BA9798438327C4FD81276383E70056
:1035D0000290178700001307E7888367C4FD9207EE
:1035E000BA97DC4393F6F70F178700001307878716
:1035F0008367C4FD9207BA979C470347B4FD012730
:103600003A86BE853685EFF0DFEAAA87A307F4FE87
:103610008347F4FE93F7F70F85E31787000013073E
:1036200067848367C4FD9207BA97DC47032744FD8C
:10363000BA853E85EFF01FEB8347F4FE3E85A2700E
:10364000027445618280011122EC0010AA87A30751
:10365000F4FE7350003A7350203A8347F4FE1B8700
:10366000070097860000938666A6BA878E07BA97EA
:103670009207B6979C6B7390073B8347F4FE1B87BA
:10368000070097860000938666A4BA878E07BA97CC
:103690009207B6979C6F7390173B8347F4FE1B8786
:1036A000070097860000938666A2BA878E07BA97AE
:1036B0009207B6979C737390273B8347F4FE1B8752
:1036C000070097860000938666A0BA878E07BA9790
:1036D0009207B6979C777390373B8347F4FE1B871E
:1036E0000700978600009386669EBA878E07BA9772
:1036F0009207B6979C7B7390473B8347F4FE1B87EA
:103700000700978600009386669CBA878E07BA9753
:103710009207B6979C7F7390573B8347F4FE1B87B5
:103720000700978600009386669ABA878E07BA9735
:103730009207B697BC637390673B8347F4FE1B8781
:1037400007009786000093866698BA878E07BA9717
:103750009207B697BC677390773B8347F4FE1B874D
:1037600007009786000093866696BA878E07BA97F9
:103770009207B697BC6B7390873B8347F4FE1B8719
:1037800007009786000093866694BA878E07BA97DB
:103790009207B697BC6F7390973B8347F4FE1B87E5
:1037A00007009786000093866692BA878E07BA97BD
:1037B0009207B697BC737390A73B8347F4FE1B87B1
:1037C00007009786000093866690BA878E07BA979F
:1037D0009207B697BC777390B73B8347F4FE1B877D
:1037E0000700978600009386668EBA878E07BA9781
:1037F0009207B697BC7B7390C73B8347F4FE1B8749
:103800000700978600009386668CBA878E07BA9762
:103810009207B697BC7F7390D73B8347F4FE1B8714
:103820000700978600009386668ABA878E07BA9744
:103830009207B697DC637390E73B8347F4FE1B87E0
:1038400007009786000093866688BA878E07BA9726
:103850009207B697DC677390F73B8347F4FE1B87AC
:1038600007009786000093866686BA878E07BA9708
:103870009207B6979C637390073A81473E856264CE
:1038800005618280011122EC0010F37704302334AB
:10389000F4FE93070008F3B707302330F4FE01006D
:1038A000626405618280411106E422E00008EFF0C5
:1038B0007FFD73504030735040340100A2600264B9
:1038C00041018280011122EC0010F367043023349F
:1038D000F4FE0100626405618280397122FC80007F
:1038E000AA87A307F4FC8347F4FC93F7F70F91E34F
:1038F00002908347F4FC13F7F70F9307F00263F38A
:10390000E7000290F32740F12334F4FE833784FE6E
:10391000A303F4FE8347F4FC93F7F70F63860712C3
:103920008347F4FC13F7F70F9307F00263EEE710F9
:103930008347F4FCC12793F7F70F9B9787019BD729
:10394000874181273E878547B397E700F3A7473034
:10395000233CF4FC8347F4FC13F7F70FBD4763F5F2
:10396000E70E834774FE13F7F70F85476318F702D6
:10397000B7270020BC439B8607008347F4FC8127C0
:10398000C13781273E878547BB97E7001B87070024
:10399000B7270020558F0127B8C37DA0834774FE49
:1039A00013F7F70F89476318F702B7270020FC4386
:1039B0009B8607008347F4FC8127C13781273E8718
:1039C0008547BB97E7001B870700B7270020558F67
:1039D0000127F8C395A8834774FE13F7F70F8D47A7
:1039E0006318F702B7270020BC479B860700834770
:1039F000F4FC8127C13781273E878547BB97E700C5
:103A00001B870700B7270020558F0127B8C72DA8AF
:103A1000834774FE13F7F70F91476317F702B72731
:103A20000020FC479B8607008347F4FC8127C137B1
:103A300081273E878547BB97E7001B870700B7278D
:103A40000020558F0127F8C7010062742161828030
:103A5000797122F40018AA87A30FF4FC8347F4FDC0
:103A600093F7F70F91E302908347F4FD13F7F70FF5
:103A70009307F00263F3E70002908347F4FD93F7A6
:103A8000F70F9DCB8347F4FD13F7F70F9307F00271
:103A900063E4E7028347F4FDC12793F7F70F9B9791
:103AA00087019BD7874181273E878547B397E700EA
:103AB000F3B747302334F4FE01002274456182805D
:103AC000397122FC8000AA872326F4FCF32740F1F9
:103AD0002334F4FE833784FE2330F4FE033704FEE0
:103AE000914763E2E724833704FE13972700978703
:103AF00000009387A78ABA979C431B870700978784
:103B000000009387A789BA9782873707000C83271D
:103B1000C4FC9BD757008127939607028192856743
:103B200093870780B6978A07BA979C43232EF4FCA5
:103B30008327C4FCFD8B81273E878547BB97E70021
:103B40001B8707008327C4FDD98F232EF4FC37077A
:103B5000000C8327C4FC9BD757008127939607024C
:103B60008192856793870780B6978A07BA9703275C
:103B7000C4FD98C355AA3707000C8327C4FC9BD704
:103B80005700812793960702819285679387078262
:103B9000B6978A07BA979C43232EF4FC8327C4FC6C
:103BA000FD8B81273E878547BB97E7001B87070072
:103BB0008327C4FDD98F232EF4FC3707000C8327FD
:103BC000C4FC9BD757008127939607028192856793
:103BD00093870782B6978A07BA970327C4FD98C3CD
:103BE000A1A23707000C8327C4FC9BD7570081276D
:103BF000939607028192856793870786B6978A070F
:103C0000BA979C43232EF4FC8327C4FCFD8B8127A9
:103C10003E878547BB97E7001B8707008327C4FDC6
:103C2000D98F232EF4FC3707000C8327C4FC9BD7C5
:103C300057008127939607028192856793870786AD
:103C4000B6978A07BA970327C4FD98C3F1A8370728
:103C5000000C8327C4FC9BD757008127939607024B
:103C6000819285679387078AB6978A07BA979C439C
:103C7000232EF4FC8327C4FCFD8B81273E878547D8
:103C8000BB97E7001B8707008327C4FDD98F232E2E
:103C9000F4FC3707000C8327C4FC9BD7570081270F
:103CA00093960702819285679387078AB6978A075A
:103CB000BA970327C4FD98C385A83707000C83274C
:103CC000C4FC9BD757008127939607028192856792
:103CD0009387078EB6978A07BA979C43232EF4FCE6
:103CE0008327C4FCFD8B81273E878547BB97E70070
:103CF0001B8707008327C4FDD98F232EF4FC3707C9
:103D0000000C8327C4FC9BD757008127939607029A
:103D1000819285679387078EB6978A07BA9703279C
:103D2000C4FD98C311A0010001006274216182806A
:103D3000397122FC8000AA872326F4FCF32740F186
:103D40002334F4FE833784FE2330F4FE033704FE6D
:103D5000914763E1E726833704FE1397270097779F
:103D600000009387E764BA979C431B870700977707
:103D700000009387E763BA9782873707000C832791
:103D8000C4FC9BD7570081279396070281928567D1
:103D900093870780B6978A07BA979C43232EF4FC33
:103DA0008327C4FCFD8B81273E878547BB97E700AF
:103DB000812793C7F7FF1B8707008327C4FDF98F6F
:103DC000232EF4FC3707000C8327C4FC9BD7570035
:103DD0008127939607028192856793870780B6971C
:103DE0008A07BA970327C4FD98C3F1A23707000CCE
:103DF0008327C4FC9BD757008127939607028192A3
:103E0000856793870782B6978A07BA979C43232EC4
:103E1000F4FC8327C4FCFD8B81273E878547BB9735
:103E2000E700812793C7F7FF1B8707008327C4FD9F
:103E3000F98F232EF4FC3707000C8327C4FC9BD793
:103E4000570081279396070281928567938707829F
:103E5000B6978A07BA970327C4FD98C3A9AA37075C
:103E6000000C8327C4FC9BD7570081279396070239
:103E70008192856793870786B6978A07BA979C438E
:103E8000232EF4FC8327C4FCFD8B81273E878547C6
:103E9000BB97E700812793C7F7FF1B87070083279E
:103EA000C4FDF98F232EF4FC3707000C8327C4FCD4
:103EB0009BD7570081279396070281928567938746
:103EC0000786B6978A07BA970327C4FD98C3E5A06B
:103ED0003707000C8327C4FC9BD757008127939694
:103EE0000702819285679387078AB6978A07BA97F0
:103EF0009C43232EF4FC8327C4FCFD8B81273E8743
:103F00008547BB97E700812793C7F7FF1B8707000B
:103F10008327C4FDF98F232EF4FC3707000C832779
:103F2000C4FC9BD75700812793960702819285672F
:103F30009387078AB6978A07BA970327C4FD98C361
:103F40009DA83707000C8327C4FC9BD75700812707
:103F500093960702819285679387078EB6978A07A3
:103F6000BA979C43232EF4FC8327C4FCFD8B812746
:103F70003E878547BB97E700812793C7F7FF1B87DD
:103F800007008327C4FDF98F232EF4FC3707000CAC
:103F90008327C4FC9BD75700812793960702819201
:103FA00085679387078EB6978A07BA970327C4FD5C
:103FB00098C311A001000100627421618280011187
:103FC00006EC22E800102334A4FEAE8732872322B9
:103FD000F4FEBA87A301F4FE034734FE832744FEB0
:103FE0003A86BE85033584FEEF002066833784FE63
:103FF0009C6383C7070313F7F70F833784FE9C6323
:104000005D9B1377F70F2388E702833784FE9C6359
:1040100083C7470313F7F70F833784FE9C636D9BB9
:104020001377F70F238AE702833784FE9C6383C7E5
:10403000870313F7F70F833784FE9C63799B13770D
:10404000F70F238CE702833784FE1717000013074E
:10405000C7E998FB0100E2604264056182805D71FE
:10406000A2E480082334A4FC2330B4FCB287232EBE
:10407000F4FA232604FE8327C4FB2322F4FE8337AD
:1040800004FC91E302908327C4FB812791E3029013
:10409000833704FCDDCB832744FE8127DDC78337CC
:1040A00084FC9C6383C74701A30FF4FC833784FC23
:1040B00003C7D7008347F4FDD98F13F7F70F833772
:1040C00084FCA386E7008347F4FD812793F707026A
:1040D0008127A5CBC1472320F4FE832744FE1B87FD
:1040E0000700BD4763E6E700832744FE2320F4FE74
:1040F000232404FE3DA08367C4FE033704FC3E97DF
:10410000833784FC9C63034707002380E7008327F1
:10411000C4FE85272326F4FE832784FE85272324D7
:10412000F4FE032784FE832704FE01278127E3642E
:10413000F7FC032744FE832784FEBB07F7402322B6
:10414000F4FE832744FE8127B9FB010026646161E8
:104150008280797122F40018233CA4FC2338B4FC3B
:10416000232604FE833704FD91E30290833704FD88
:10417000C5C78367C4FE033704FDBA9783C707002A
:10418000A303F4FE69A0833784FD9C6383C74701C2
:104190002303F4FE833784FD03C7D700834764FEFF
:1041A000D98F13F7F70F833784FDA386E700834782
:1041B00064FE812793F707028127F1D7232404FEA9
:1041C0001DA8833784FD9C63034774FE2380E700AA
:1041D000832784FE85272324F4FE8327C4FE8527B6
:1041E0002326F4FE8367C4FE033704FDBA9783C712
:1041F0000700A303F4FE834774FE93F7F70F81CB08
:10420000832784FE1B870700BD47E3FCE7FA83474B
:1042100074FE93F7F70FA5FB0100227445618280BD
:10422000397122FC8000233CA4FC2338B4FC2334E5
:10423000C4FC233404FEA30304FE833704FD91E38E
:104240000290833784FC91E30290833704FDC1CF51
:10425000833784FCC9CB833784FD9C6383C74701C4
:10426000A303F4FE833784FD03C7D700834774FE9E
:10427000D98F13F7F70F833784FDA386E70081A852
:10428000833784FD9863833604FD833784FEB697B5
:10429000034707001377F70F2380E700833784FE77
:1042A00085072334F4FE833784FD9C6383C747016D
:1042B000A303F4FE833784FD03C7D700834774FE4E
:1042C000D98F13F7F70F833784FDA386E700834761
:1042D00074FE8127858B812799C7033784FE833736
:1042E00084FCE36FF7F8833784FE3E8562742161B6
:1042F0008280797106F422F000182334A4FE233062
:10430000B4FEB287232EF4FC833704FE91E30290BF
:104310008327C4FD1B8707009307000C63F3E700A6
:104320000290833704FEC9C78327C4FD1B8707009B
:104330009307000C63EEE706833784FE033704FE21
:1043400098F7833784FE9C6383C7870093F7F70F42
:104350009B9787019BD7874193F7F7031B978701AB
:104360001B5787418327C4FD9B9787019BD78741B4
:10437000D98F1B9787011B578741833784FE9C6326
:104380001377F70F2384E700833784FE9C6383C78A
:10439000470013F7F70F833784FE9C6313671700FA
:1043A0001377F70F2382E700033584FEEF00F04513
:1043B0000100A270027445618280411106E422E08E
:1043C0000008978700009387671C9C43858B812793
:1043D00081CB1785050013056563EF00101139A027
:1043E000178505001305054CEF00301081473E8509
:1043F000A260026441018280411106E422E00008CB
:1044000097870000938787189C43898B812781CBEE
:10441000178505001305053AEF00300D39A0178503
:10442000050013052566EF00500C81473E85A2600C
:10443000026441018280411106E422E0000897876E
:1044400000009387A7149C43918B812781CB17850C
:1044500005001305A53DEF00500939A0178505009B
:104460001305C52DEF00700881473E85A2600264E8
:1044700041018280411106E422E000089787000094
:104480009387C7109C43A18B812781CB178505009B
:104490001305C566EF00700539A0178505001305E3
:1044A000654FEF00900481473E85A26002644101A0
:1044B0008280411106E422E000089787000093877C
:1044C000E70C9C43C18B812781CB17850500130521
:1044D000651FEF00900139A01785050013050544FD
:1044E000EF00B00081473E85A260026441018280F6
:1044F000411106E422E0000897870000938707092E
:104500009C43858B812781CB1785050013050550BA
:10451000EF00A07D39A0178505001305A538EF0031
:10452000C07C0100A260026441018280411106E466
:1045300022E0000897870000938747059C43898BFA
:10454000812781CB178505001305C526EF00E0798B
:1045500039A0178505001305E552EF000079010029
:10456000A260026441018280411106E422E0000859
:1045700097870000938787019C43918B812781CB8C
:10458000178505001305852AEF00207639A01785C9
:1045900005001305A51AEF0040750100A260026432
:1045A00041018280411106E422E000089787000063
:1045B0009387C7FD9C43A18B812781CB178505007D
:1045C0001305C553EF00607239A017850500130568
:1045D000653CEF0080710100A260026441018280AD
:1045E000411106E422E0000897870000938707FA4C
:1045F0009C43C18B812781CB178505001305850C52
:10460000EF00A06E39A01785050013052531EF00D6
:10461000C06D0100A260026441018280011106ECBC
:1046200022E800102334A4FE033584FEEF00102E90
:10463000833784FE05472384E7062D45EFF0EFA975
:104640000100E260426405618280011106EC22E80B
:1046500000102334A4FEAE8732872322F4FEBA87EB
:10466000A301F4FE033784FE978705009387872311
:104670006315F702833784FE3707002098E3978796
:1046800000009387A7F09C43F99B1B87070097873F
:1046900000009387A7EF98C3D5AA033784FE9787B6
:1046A00005009387273E6315F702833784FE37079B
:1046B000102098E397870000938747ED9C43F59B74
:1046C0001B87070097870000938747EC98C37DAA54
:1046D000033784FE97870500938747066315F70223
:1046E000833784FE3727102098E39787000093874D
:1046F000E7E99C43ED9B1B870700978700009387A2
:10470000E7E898C361A2033784FE97870500938783
:1047100067286315F702833784FE3747102098E334
:1047200097870000938787E69C43DD9B1B870700E4
:1047300097870000938787E598C389AA033784FE8B
:10474000978705009387871D6315F702833784FEDB
:104750003767102098E397870000938727E39C43EF
:10476000BD9B1B87070097870000938727E298C3AC
:1047700031AA033784FE978705009387272963169C
:10478000F702833784FE3707002898E397870000F5
:104790009387C7DF9C4393E717001B870700978722
:1047A00000009387A7DE98C3D5A0033784FE9787C0
:1047B0000500938727006316F702833784FE3707C7
:1047C000102898E397870000938747DC9C4393E782
:1047D00027001B87070097870000938727DB98C374
:1047E00075A0033784FE9787050093872704631617
:1047F000F702833784FE3727102898E39787000055
:104800009387C7D89C4393E747001B870700978788
:1048100000009387A7D798C395A8033784FE97878E
:1048200005009387A72D6316F702833784FE374769
:10483000102898E397870000938747D59C4393E718
:1048400087001B87070097870000938727D498C3AA
:1048500035A8033784FE978705009387A7E663167C
:10486000F702833784FE3767102898E397870000A4
:104870009387C7D19C4393E707011B87070097875E
:1048800000009387A7D098C311A00290833784FEBD
:104890009C6323820700833784FE9C632384070084
:1048A000833784FE9C6383C7870013F7F70F833732
:1048B00084FE9C63136727001377F70F2384E700B8
:1048C000833784FE9C6383C7870013F7F70F833712
:1048D00084FE9C63136747001377F70F2384E70078
:1048E000833784FE9C6383C7870013F7F70F8337F2
:1048F00084FE9C63136717001377F70F2384E70088
:10490000833784FE9C6383C7070113F7F70F833750
:1049100084FE9C633D9B1377F70F2388E700833762
:1049200084FE9C6383C7070113F7F70F833784FE68
:104930009C631377F7FD1377F70F2388E70083371E
:1049400084FE9C6383C7470313F7F70F833784FE06
:104950009C63759B1377F70F238AE702833784FEE6
:104960009C6383C7470313F7F70F833784FE9C6369
:10497000799B1377F70F238AE702833784FE9C63C2
:1049800083C7870313F7F70F833784FE9C63759BF8
:104990001377F70F238CE702833784FE9C6383C76A
:1049A000070313F7F70F833784FE9C631377F7FD34
:1049B0001377F70F2388E702833784FE9C6383C74E
:1049C000070313F7F70F833784FE9C631377F7FB16
:1049D0001377F70F2388E702833784FE9C6383C72E
:1049E000070313F7F70F833784FE9C631377F707EA
:1049F0001377F70F2388E702833784FE9C6383C70E
:104A0000870313F7F70F833784FE9C635D9B13774F
:104A1000F70F238CE702833784FE9C63238207040D
:104A2000833784FE9C6323840704833784FE9C635E
:104A300023860704832744FEBE85033584FEEF00EA
:104A4000200A833784FE9C63034734FE2386E700F5
:104A5000833784FE032744FE98C7833784FE0347C9
:104A600034FE2386E700833784FE23AC07008337B8
:104A700084FE23B80700833784FE23AE0700833704
:104A800084FE23B40702833784FE23B807028337EA
:104A900084FE23B00702833784FE23BC07028337DA
:104AA00084FE23B00704833784FE23B407048337CE
:104AB00084FE23B80704833784FE23BC07048337AE
:104AC00084FE23B00706833784FE238407068337DA
:104AD00084FEA38607000100E260426405618280D3
:104AE000397122FC80002334A4FCAE872322F4FC1D
:104AF000833784FC032744FC98C7B7D7F008938713
:104B000007182334F4FE833784FE13973700836736
:104B100044FCB357F7022322F4FE832744FE9BD7BD
:104B200017002320F4FE832704FE9BD76700232E63
:104B3000F4FC8327C4FD9B9767008127032704FEAD
:104B4000BB07F740232CF4FC8327C4FD9B97770019
:104B50008127032744FEBB07F7401B8707008327F5
:104B600084FD9B9717008127BB07F7408127032708
:104B700084FDB99F232CF4FC8327C4FD1B87070009
:104B8000C1676363F70002908327C4FD1B8707009A
:104B9000C1676378F7148327C4FD1B870700854727
:104BA00063FBE70A833784FC9C6383C7C70013F762
:104BB000F70F833784FC9C63136707F81377F70FAD
:104BC0002386E7008327C4FD9BD787001B87070048
:104BD000833784FC9C631377F70F2382E7008337C6
:104BE00084FC9C630327C4FD1377F70F2380E70041
:104BF000833784FC9C6383C7C70013F7F70F8337A1
:104C000084FC9C631377F7071377F70F2386E7007D
:104C1000833784FC9C6383C7070313F7F70F83373D
:104C200084FC9C63136707F81377F70F2388E70268
:104C3000832784FD1B8707009307F00F63F3E700CA
:104C40000290833784FC9C63032784FD1377F70F5E
:104C5000238EE70279A0833784FC9C6383C7C70057
:104C600013F7F70F833784FC9C63136707F81377F8
:104C7000F70F2386E7008327C4FD9BD787001B8798
:104C80000700833784FC9C631377F70F2382E700C8
:104C9000833784FC9C630327C4FD1377F70F2380BD
:104CA000E700833784FC9C6383C7C70013F7F70FC3
:104CB000833784FC9C631377F7071377F70F2386FA
:104CC000E700833784FC9C6383C7070313F7F70F60
:104CD000833784FC9C631377F7071377F70F2388D8
:104CE000E7020100627421618280797106F422F08A
:104CF0000018233CA4FC833784FD9C6383C7870092
:104D000093F7F70FBD8BA307F4FE8347F4FE8127CB
:104D1000BE8631476369D71A13972700976700004B
:104D20009387476ABA979C431B87070097670000E1
:104D300093874769BA978287833784FD9C7F91E385
:104D40000290833784FD9C7F63810718833784FD3D
:104D50009C7F033584FD82978DAA833784FD9C7BDD
:104D600091E30290833784FD9C7B6382071683372F
:104D700084FD9C7B033584FD829791AA833784FD53
:104D80009C7791E30290833784FD9C7763830714BB
:104D9000833784FD9C77033584FD82971DAA833772
:104DA00084FD9C7391E30290833784FD9C7363843C
:104DB0000712833784FD9C73033584FD829721AAF3
:104DC000833784FD9C6383C7870293F7F70F81279E
:104DD000858B812785C3833784FDBC6391E3029073
:104DE000833784FDBC6399C7833784FDBC63033577
:104DF00084FD8297833784FD9C6383C7870293F782
:104E0000F70F8127858B812785C3833784FDBC6796
:104E100091E30290833784FDBC6799C7833784FD93
:104E2000BC67033584FD8297833784FD9C6383C709
:104E3000870293F7F70F8127898B812785C38337F3
:104E400084FDBC6B91E30290833784FDBC6B99C7F2
:104E5000833784FDBC6B033584FD8297833784FDE3
:104E60009C6383C7870293F7F70F81278D8B812778
:104E700085C3833784FDBC6F91E30290833784FD43
:104E8000BC6F99C7833784FDBC6F033584FD82975F
:104E9000833784FD9C6383C7870293F7F70F8127CD
:104EA000918B81279DCB833784FDBC7391E3029066
:104EB000833784FDBC7395C3833784FDBC7303358E
:104EC00084FD829719A8029011A8010001A8010091
:104ED00031A0010021A0010011A001000100A27079
:104EE000027445618280797122F40018233CA4FC8D
:104EF000833784FD9C6B91E30290833784FD9C4F44
:104F000091E30290833784FD9C6BE5CF833784FD6A
:104F10009C4FE5CB833784FD9C6383C74701A30384
:104F2000F4FE833784FD03C7D700834774FED98F0F
:104F300013F7F70F833784FDA386E700834774FEDA
:104F4000812793F707028127D1C3C1472324F4FEA9
:104F5000833784FD984F833784FDDC4FBB07F740D0
:104F60002320F4FE832704FE1B870700BD4763E66A
:104F7000E700832704FE2324F4FE232604FE3DA835
:104F8000833784FD986B833784FDDC4F82178193D0
:104F90003E97833784FD9C63034707002380E70027
:104FA000833784FDDC4F85271B870700833784FD0B
:104FB000D8CF8327C4FE85272326F4FE0327C4FE0B
:104FC000832784FE01278127E36CF7FA833784FD6A
:104FD000D84F833784FD9C4F6315F702833784FDD8
:104FE00023AC0700833784FD9C6383C7470013F716
:104FF000F70F833784FD9C63759B1377F70F23822C
:10500000E7000100227445618280797106F422F084
:105010000018233CA4FC232604FE833784FD83C7A9
:105020008706E5E3033784FD978705009387878725
:10503000630AF700033784FD978705009387079D70
:105040006317F7009307A0052326F4FE75A0033726
:1050500084FD978705009387E7A2630AF70003376B
:1050600084FD977705009387E7746317F70093072C
:10507000B0052326F4FE49A0033784FD9777050089
:105080009387C76B630AF700033784FD97770500A2
:105090009387C7796317F7009307C0052326F4FEAB
:1050A000A1A8033784FD978705009387A78E630A1D
:1050B000F700033784FD97870500938727A46317BC
:1050C000F7009307D0052326F4FE3DA0033784FDA7
:1050D0009787050093878784630AF700033784FD69
:1050E000977705009387075E6317F7009307E0053E
:1050F0002326F4FE11A002908327C4FE3E85EFE034
:105100003F9C0100A270027445618280797106F4AF
:1051100022F00018233CA4FC232604FE033784FD60
:105120009777050093870778630AF700033784FDB4
:10513000978705009387878D6317F7009307A0056E
:105140002326F4FE75A0033784FD97870500938717
:105150006793630AF700033784FD97770500938709
:1051600067656317F7009307B0052326F4FE49A08F
:10517000033784FD977705009387475C630AF70040
:10518000033784FD977705009387476A6317F70015
:105190009307C0052326F4FEA1A8033784FD977763
:1051A00005009387277F630AF700033784FD9787FD
:1051B00005009387A7946317F7009307D00523266C
:1051C000F4FE3DA0033784FD9777050093870775AC
:1051D000630AF700033784FD977705009387874EAE
:1051E0006317F7009307E0052326F4FE11A0029051
:1051F0008327C4FE3E85EFE0BFB30100A2700274B6
:1052000045618280011122EC00102334A4FE833713
:1052100084FE7D5723A0E708010062640561828057
:10522000011106EC22E800102334A4FEAE87328779
:105230002322F4FEBA872320F4FE832744FEBE8592
:10524000033584FEEF00A009AA8799EB033784FE9B
:10525000836744FE8A07BA97032704FE98C311A008
:1052600002900100E260426405618280011106EC57
:1052700022E800102334A4FEAE8732872322F4FEF6
:10528000BA87A301F4FE832744FEBE85033584FE5E
:10529000EF00E004AA8795EF834734FE93F7F70FFA
:1052A00089CF832744FE0547BB17F7001B870700FC
:1052B000833784FE23A2E70A31A8832744FE0547EB
:1052C000BB17F7001B870700833784FE23A0E70A7C
:1052D00011A002900100E260426405618280797150
:1052E00022F40018233CA4FCAE87232AF4FC0337E5
:1052F00084FDB70712206308F700033784FDB70762
:105300001228631DF700832744FD1B870700B5475C
:1053100063F6E7008547A307F4FE8DA0033784FDFD
:10532000B71712206308F700033784FDB717122858
:10533000631DF700832744FD1B870700DD4763F6E5
:10534000E7008547A307F4FE15A8033784FDB727B8
:1053500012206308F700033784FDB7271228631D66
:10536000F700832744FD1B870700FD4763F6E7002E
:105370008547A307F4FE19A0A30704FE8347F4FEA4
:105380003E85227445618280397122FC8000AA87A3
:105390002326F4FCF32740F12334F4FE833784FE04
:1053A0002330F4FE033704FE914763E2E72483379A
:1053B00004FE13972700976700009387E703BA97C7
:1053C0009C431B870700976700009387E702BA9703
:1053D00082873707000C8327C4FC9BD7570081279F
:1053E000939607028192856793870780B6978A070D
:1053F000BA979C43232EF4FC8327C4FCFD8B8127A2
:105400003E878547BB97E7001B8707008327C4FDBE
:10541000D98F232EF4FC3707000C8327C4FC9BD7BD
:1054200057008127939607028192856793870780AB
:10543000B6978A07BA970327C4FD98C355AA3707BA
:10544000000C8327C4FC9BD7570081279396070243
:105450008192856793870782B6978A07BA979C439C
:10546000232EF4FC8327C4FCFD8B81273E878547D0
:10547000BB97E7001B8707008327C4FDD98F232E26
:10548000F4FC3707000C8327C4FC9BD75700812707
:10549000939607028192856793870782B6978A075A
:1054A000BA970327C4FD98C3A1A23707000C83272E
:1054B000C4FC9BD75700812793960702819285678A
:1054C00093870786B6978A07BA979C43232EF4FCE6
:1054D0008327C4FCFD8B81273E878547BB97E70068
:1054E0001B8707008327C4FDD98F232EF4FC3707C1
:1054F000000C8327C4FC9BD7570081279396070293
:105500008192856793870786B6978A07BA9703279C
:10551000C4FD98C3F1A83707000C8327C4FC9BD7B0
:105520005700812793960702819285679387078AA0
:10553000B6978A07BA979C43232EF4FC8327C4FCB2
:10554000FD8B81273E878547BB97E7001B870700B8
:105550008327C4FDD98F232EF4FC3707000C832743
:10556000C4FC9BD7570081279396070281928567D9
:105570009387078AB6978A07BA970327C4FD98C30B
:1055800085A83707000C8327C4FC9BD757008127C9
:1055900093960702819285679387078EB6978A074D
:1055A000BA979C43232EF4FC8327C4FCFD8B8127F0
:1055B0003E878547BB97E7001B8707008327C4FD0D
:1055C000D98F232EF4FC3707000C8327C4FC9BD70C
:1055D0005700812793960702819285679387078EEC
:1055E000B6978A07BA970327C4FD98C311A0010094
:1055F0000100627421618280397122FC8000AA87D7
:105600002326F4FCF32740F12334F4FE833784FE91
:105610002330F4FE033704FE914763E1E726833726
:1056200004FE1397270097670000938727DEBA9739
:105630009C431B87070097670000938727DDBA9775
:1056400082873707000C8327C4FC9BD7570081272C
:10565000939607028192856793870780B6978A079A
:10566000BA979C43232EF4FC8327C4FCFD8B81272F
:105670003E878547BB97E700812793C7F7FF1B87C6
:1056800007008327C4FDF98F232EF4FC3707000C95
:105690008327C4FC9BD757008127939607028192EA
:1056A000856793870780B6978A07BA970327C4FD53
:1056B00098C3F1A23707000C8327C4FC9BD757007F
:1056C0008127939607028192856793870782B69711
:1056D0008A07BA979C43232EF4FC8327C4FCFD8BD6
:1056E00081273E878547BB97E700812793C7F7FF50
:1056F0001B8707008327C4FDF98F232EF4FC37078F
:10570000000C8327C4FC9BD7570081279396070280
:105710008192856793870782B6978A07BA9703278E
:10572000C4FD98C3A9AA3707000C8327C4FC9BD7E4
:105730005700812793960702819285679387078692
:10574000B6978A07BA979C43232EF4FC8327C4FCA0
:10575000FD8B81273E878547BB97E700812793C74D
:10576000F7FF1B8707008327C4FDF98F232EF4FC66
:105770003707000C8327C4FC9BD7570081279396DB
:1057800007028192856793870786B6978A07BA973B
:105790000327C4FD98C3E5A03707000C8327C4FC8A
:1057A0009BD757008127939607028192856793873D
:1057B000078AB6978A07BA979C43232EF4FC83275F
:1057C000C4FCFD8B81273E878547BB97E700812777
:1057D00093C7F7FF1B8707008327C4FDF98F232E8C
:1057E000F4FC3707000C8327C4FC9BD757008127A4
:1057F00093960702819285679387078AB6978A07EF
:10580000BA970327C4FD98C39DA83707000C8327C8
:10581000C4FC9BD757008127939607028192856726
:105820009387078EB6978A07BA979C43232EF4FC7A
:105830008327C4FCFD8B81273E878547BB97E70004
:10584000812793C7F7FF1B8707008327C4FDF98FC4
:10585000232EF4FC3707000C8327C4FC9BD757008A
:10586000812793960702819285679387078EB69763
:105870008A07BA970327C4FD98C311A0010001004D
:10588000627421618280011122EC0010AA872E87A8
:105890002326F4FEBA872324F4FE8327C4FE81273F
:1058A00095C78327C4FE1B8707009307A00B63EFF0
:1058B000E7003707000C8327C4FEFD3781278217D6
:1058C00081938A07BA97032784FED8C301006264D4
:1058D00005618280397106FC22F880002334A4FC23
:1058E0002330B4FC833704FC91E30290033784FC3B
:1058F0009787090093870728630BF702033784FC17
:1059000097970B00938707A76303F702033784FC7D
:105910009777050093870726630BF700033784FC0E
:1059200097870700938707A56303F70002908335E5
:1059300004FC033584FCEF209077033784FC9787C1
:105940000900938727236316F706B727002083A74C
:1059500047081B870700B727002013672700012788
:1059600023A2E708B727002083A787081B87070023
:10597000B727002013672700012723A4E708233057
:1059800004FE31A0833704FE85072330F4FE03377D
:1059900004FE9307803EE317F7FEB727002083A796
:1059A00087081B870700B7270020759B012723A4C2
:1059B000E708033784FC97970B009387A79B631630
:1059C000F706B727002083A747081B870700B727DC
:1059D000002013674700012723A2E708B72700200C
:1059E00083A787081B870700B72700201367470096
:1059F000012723A4E708233C04FC31A0833784FD5E
:105A00008507233CF4FC033784FD9307803EE317AE
:105A1000F7FEB727002083A787081B870700B72753
:105A200000206D9B012723A4E708833784FC9C4357
:105A3000639B0712033784FC9967938787E0BA97C3
:105A40009B860700033784FCA167BA9783B7871A40
:105A5000368713671700012798C3033784FCB9679B
:105A6000938787FDBA979B860700033784FCC1673D
:105A7000BA9783B78737368713671700012798C30C
:105A8000033784FCD9679387871ABA979B860700E8
:105A9000033784FCE167BA9783B787543687136767
:105AA0001700012798C3033784FCF967938787376A
:105AB000BA979B860700033784FCB7070200BA97A2
:105AC00083B78771368713671700012798C3833719
:105AD00084FC938707039B860700033784FCA16738
